{
  "contractName": "ChairmanRegistry",
  "abi": [
    {
      "constant": false,
      "inputs": [
        {
          "name": "validatedChairman",
          "type": "address"
        },
        {
          "name": "companyName",
          "type": "string"
        }
      ],
      "name": "assignChairman",
      "outputs": [],
      "payable": false,
      "stateMutability": "nonpayable",
      "type": "function"
    },
    {
      "constant": false,
      "inputs": [
        {
          "name": "companyName",
          "type": "string"
        }
      ],
      "name": "becomeChairman",
      "outputs": [],
      "payable": false,
      "stateMutability": "nonpayable",
      "type": "function"
    },
    {
      "constant": true,
      "inputs": [
        {
          "name": "companyChairman",
          "type": "address"
        }
      ],
      "name": "getCompanyAssigned",
      "outputs": [
        {
          "name": "",
          "type": "string"
        }
      ],
      "payable": false,
      "stateMutability": "view",
      "type": "function"
    },
    {
      "inputs": [],
      "payable": false,
      "stateMutability": "nonpayable",
      "type": "constructor"
    }
  ],
  "bytecode": "0x6060604052341561000f57600080fd5b336000806101000a81548173ffffffffffffffffffffffffffffffffffffffff021916908373ffffffffffffffffffffffffffffffffffffffff1602179055506107758061005e6000396000f300606060405260043610610057576000357c0100000000000000000000000000000000000000000000000000000000900463ffffffff16806387a8d4dc1461005c5780638924f962146100d8578063b45b918414610135575b600080fd5b341561006757600080fd5b6100d6600480803573ffffffffffffffffffffffffffffffffffffffff1690602001909190803590602001908201803590602001908080601f016020809104026020016040519081016040528093929190818152602001838380828437820191505050505050919050506101e7565b005b34156100e357600080fd5b610133600480803590602001908201803590602001908080601f01602080910402602001604051908101604052809392919081815260200183838082843782019150505050505091905050610363565b005b341561014057600080fd5b61016c600480803573ffffffffffffffffffffffffffffffffffffffff1690602001909190505061056b565b6040518080602001828103825283818151815260200191508051906020019080838360005b838110156101ac578082015181840152602081019050610191565b50505050905090810190601f1680156101d95780820380516001836020036101000a031916815260200191505b509250505060405180910390f35b3373ffffffffffffffffffffffffffffffffffffffff166000809054906101000a900473ffffffffffffffffffffffffffffffffffffffff1673ffffffffffffffffffffffffffffffffffffffff1614151561024257600080fd5b81600073ffffffffffffffffffffffffffffffffffffffff168173ffffffffffffffffffffffffffffffffffffffff161415151561027f57600080fd5b81604051806000019050604051809103902060001916816040518082805190602001908083835b6020831015156102cb57805182526020820191506020810190506020830392506102a6565b6001836020036101000a0380198251168184511680821785525050505050509050019150506040518091039020600019161415151561030957600080fd5b82600160008673ffffffffffffffffffffffffffffffffffffffff1673ffffffffffffffffffffffffffffffffffffffff168152602001908152602001600020908051906020019061035c929190610690565b5050505050565b33600073ffffffffffffffffffffffffffffffffffffffff168173ffffffffffffffffffffffffffffffffffffffff16141515156103a057600080fd5b81604051806000019050604051809103902060001916816040518082805190602001908083835b6020831015156103ec57805182526020820191506020810190506020830392506103c7565b6001836020036101000a0380198251168184511680821785525050505050509050019150506040518091039020600019161415151561042a57600080fd5b6000809054906101000a900473ffffffffffffffffffffffffffffffffffffffff1673ffffffffffffffffffffffffffffffffffffffff16631f4f7d2933856040518363ffffffff167c0100000000000000000000000000000000000000000000000000000000028152600401808373ffffffffffffffffffffffffffffffffffffffff1673ffffffffffffffffffffffffffffffffffffffff16815260200180602001828103825283818151815260200191508051906020019080838360005b838110156105065780820151818401526020810190506104eb565b50505050905090810190601f1680156105335780820380516001836020036101000a031916815260200191505b509350505050600060405180830381600087803b151561055257600080fd5b6102c65a03f1151561056357600080fd5b505050505050565b610573610710565b81600073ffffffffffffffffffffffffffffffffffffffff168173ffffffffffffffffffffffffffffffffffffffff16141515156105b057600080fd5b600160008473ffffffffffffffffffffffffffffffffffffffff1673ffffffffffffffffffffffffffffffffffffffff1681526020019081526020016000208054600181600116156101000203166002900480601f0160208091040260200160405190810160405280929190818152602001828054600181600116156101000203166002900480156106835780601f1061065857610100808354040283529160200191610683565b820191906000526020600020905b81548152906001019060200180831161066657829003601f168201915b5050505050915050919050565b828054600181600116156101000203166002900490600052602060002090601f016020900481019282601f106106d157805160ff19168380011785556106ff565b828001600101855582156106ff579182015b828111156106fe5782518255916020019190600101906106e3565b5b50905061070c9190610724565b5090565b602060405190810160405280600081525090565b61074691905b8082111561074257600081600090555060010161072a565b5090565b905600a165627a7a72305820a26c10aa7ee2fc3756b359eefab776c857f60e2511abf1e2a0e97ba36fdcf8b50029",
  "source": "pragma solidity ^0.4.15;\n\n\nimport \"./Oracle.sol\";\n\n\ncontract ChairmanRegistry {\n\n    // multisig contract that is responsible for authentication weather or not user have claims to chairman position\n    Oracle oracle;\n\n    // chairmanAddress => companyName\n    mapping (address => string) chairmanMap;\n\n    modifier isOracle(){\n        require(oracle == msg.sender);\n        _;\n    }\n\n    modifier validAddress(address adr){\n        require(adr != address(0));\n        _;\n    }\n\n    // some more sophisticated validation of company name may be implemented here\n    modifier validCompany(string compName){\n        require(keccak256(compName) != keccak256(\"\"));\n        _;\n    }\n\n    function ChairmanRegistry() {\n        oracle = Oracle(msg.sender);\n    }\n\n    function becomeChairman(string companyName) public\n    validAddress(msg.sender)\n    validCompany(companyName) {\n        //send request to oracle\n        oracle.createProposal(msg.sender, companyName);\n    }\n\n    function assignChairman(address validatedChairman, string companyName)\n    isOracle\n    validAddress(validatedChairman)\n    validCompany(companyName) {\n        chairmanMap[validatedChairman] = companyName;\n    }\n\n    function getCompanyAssigned(address companyChairman) constant\n    validAddress(companyChairman) returns (string){\n        return chairmanMap[companyChairman];\n    }\n\n}\n",
  "sourcePath": "/home/szymon/IdeaProjects/consortium-identity/contracts/ChairmanRegistry.sol",
  "compiler": {
    "name": "solc",
    "version": "0.4.18+commit.9cf6e910.Emscripten.clang"
  },
  "schemaVersion": "1.0.1",
  "updatedAt": "2017-12-22T00:31:30.591Z"
}