{
  "contractName": "Oracle",
  "abi": [
    {
      "constant": false,
      "inputs": [
        {
          "name": "chairman",
          "type": "address"
        },
        {
          "name": "companyName",
          "type": "string"
        }
      ],
      "name": "createProposal",
      "outputs": [],
      "payable": false,
      "stateMutability": "nonpayable",
      "type": "function"
    },
    {
      "constant": true,
      "inputs": [
        {
          "name": "",
          "type": "address"
        },
        {
          "name": "voteFor",
          "type": "bool"
        }
      ],
      "name": "proposals",
      "outputs": [
        {
          "name": "companyName",
          "type": "string"
        },
        {
          "name": "votes",
          "type": "uint8"
        },
        {
          "name": "numberOfVotes",
          "type": "uint8"
        }
      ],
      "payable": false,
      "stateMutability": "view",
      "type": "function"
    },
    {
      "constant": false,
      "inputs": [
        {
          "name": "chairman",
          "type": "address"
        },
        {
          "name": "voteFor",
          "type": "bool"
        }
      ],
      "name": "vote",
      "outputs": [
        {
          "components": [
            {
              "name": "companyName",
              "type": "string"
            },
            {
              "name": "membersThatHaventVoted",
              "type": "address[]"
            },
            {
              "name": "votes",
              "type": "uint8"
            },
            {
              "name": "numberOfVotes",
              "type": "uint8"
            }
          ],
          "name": "",
          "type": "tuple"
        }
      ],
      "payable": false,
      "stateMutability": "nonpayable",
      "type": "function"
    },
    {
      "inputs": [
        {
          "name": "chairman",
          "type": "address"
        }
      ],
      "payable": false,
      "stateMutability": "view",
      "type": "function",
      "constant": true,
      "name": "getProposal",
      "outputs": [
        {
          "components": [
            {
              "name": "companyName",
              "type": "string"
            },
            {
              "name": "membersThatHaventVoted",
              "type": "address[]"
            },
            {
              "name": "votes",
              "type": "uint8"
            },
            {
              "name": "numberOfVotes",
              "type": "uint8"
            }
          ],
          "name": "",
          "type": "tuple"
        }
      ]
    },
    {
      "inputs": [
        {
          "name": "_members",
          "type": "address[]"
        }
      ],
      "payable": false,
      "stateMutability": "nonpayable",
      "type": "constructor"
    }
  ],
  "bytecode": "0x606060405234156200001057600080fd5b60405162001b9638038062001b9683398101604052808051820191905050806000908051906020019062000046929190620000af565b50620000516200013e565b604051809103906000f08015156200006857600080fd5b600260006101000a81548173ffffffffffffffffffffffffffffffffffffffff021916908373ffffffffffffffffffffffffffffffffffffffff1602179055505062000195565b8280548282559060005260206000209081019282156200012b579160200282015b828111156200012a5782518260006101000a81548173ffffffffffffffffffffffffffffffffffffffff021916908373ffffffffffffffffffffffffffffffffffffffff16021790555091602001919060010190620000d0565b5b5090506200013a91906200014f565b5090565b6040516107d380620013c383390190565b6200019291905b808211156200018e57600081816101000a81549073ffffffffffffffffffffffffffffffffffffffff02191690555060010162000156565b5090565b90565b61121e80620001a56000396000f300606060405260043610610062576000357c0100000000000000000000000000000000000000000000000000000000900463ffffffff1680631f4f7d29146100675780633341b445146100e3578063bd041c4d146101cc578063eb8b981114610210575b600080fd5b341561007257600080fd5b6100e1600480803573ffffffffffffffffffffffffffffffffffffffff1690602001909190803590602001908201803590602001908080601f0160208091040260200160405190810160405280939291908181526020018383808284378201915050505050509190505061025d565b005b34156100ee57600080fd5b61011a600480803573ffffffffffffffffffffffffffffffffffffffff1690602001909190505061042b565b60405180806020018460ff1660ff1681526020018360ff1660ff1681526020018281038252858181546001816001161561010002031660029004815260200191508054600181600116156101000203166002900480156101bb5780601f10610190576101008083540402835291602001916101bb565b820191906000526020600020905b81548152906001019060200180831161019e57829003601f168201915b505094505050505060405180910390f35b34156101d757600080fd5b61020e600480803573ffffffffffffffffffffffffffffffffffffffff16906020019091908035151590602001909190505061046e565b005b341561021b57600080fd5b610247600480803573ffffffffffffffffffffffffffffffffffffffff16906020019091905050610ab0565b6040518082815260200191505060405180910390f35b600260009054906101000a900473ffffffffffffffffffffffffffffffffffffffff1673ffffffffffffffffffffffffffffffffffffffff163373ffffffffffffffffffffffffffffffffffffffff161415156102b957600080fd5b608060405190810160405280828152602001600080548060200260200160405190810160405280929190818152602001828054801561034d57602002820191906000526020600020905b8160009054906101000a900473ffffffffffffffffffffffffffffffffffffffff1673ffffffffffffffffffffffffffffffffffffffff1681526020019060010190808311610303575b50505050508152602001600060ff168152602001600060ff16815250600360008473ffffffffffffffffffffffffffffffffffffffff1673ffffffffffffffffffffffffffffffffffffffff16815260200190815260200160002060008201518160000190805190602001906103c4929190610fb4565b5060208201518160010190805190602001906103e1929190611034565b5060408201518160020160006101000a81548160ff021916908360ff16021790555060608201518160020160016101000a81548160ff021916908360ff1602179055509050505050565b600360205280600052604060002060009150905080600001908060020160009054906101000a900460ff16908060020160019054906101000a900460ff16905083565b33600073ffffffffffffffffffffffffffffffffffffffff168173ffffffffffffffffffffffffffffffffffffffff16141515156104ab57600080fd5b60008060009150600090505b600080549050811015610544576000818154811015156104d357fe5b906000526020600020900160009054906101000a900473ffffffffffffffffffffffffffffffffffffffff1673ffffffffffffffffffffffffffffffffffffffff163373ffffffffffffffffffffffffffffffffffffffff16141561053757600191505b80806001019150506104b7565b81151561055057600080fd5b8460008060009150600090505b600360008473ffffffffffffffffffffffffffffffffffffffff1673ffffffffffffffffffffffffffffffffffffffff1681526020019081526020016000206001018054905081101561066a573373ffffffffffffffffffffffffffffffffffffffff16600360008573ffffffffffffffffffffffffffffffffffffffff1673ffffffffffffffffffffffffffffffffffffffff1681526020019081526020016000206001018281548110151561061057fe5b906000526020600020900160009054906101000a900473ffffffffffffffffffffffffffffffffffffffff1673ffffffffffffffffffffffffffffffffffffffff16141561065d57600191505b808060010191505061055d565b81151561067657600080fd5b861561079b576002600360008a73ffffffffffffffffffffffffffffffffffffffff1673ffffffffffffffffffffffffffffffffffffffff16815260200190815260200160002060020160009054906101000a900460ff1601600360008a73ffffffffffffffffffffffffffffffffffffffff1673ffffffffffffffffffffffffffffffffffffffff16815260200190815260200160002060020160006101000a81548160ff021916908360ff160217905550600360008973ffffffffffffffffffffffffffffffffffffffff1673ffffffffffffffffffffffffffffffffffffffff168152602001908152602001600020600201600181819054906101000a900460ff1660010191906101000a81548160ff021916908360ff160217905550610876565b600360008973ffffffffffffffffffffffffffffffffffffffff1673ffffffffffffffffffffffffffffffffffffffff168152602001908152602001600020600201600081819054906101000a900460ff1660010191906101000a81548160ff021916908360ff160217905550600360008973ffffffffffffffffffffffffffffffffffffffff1673ffffffffffffffffffffffffffffffffffffffff168152602001908152602001600020600201600181819054906101000a900460ff1660010191906101000a81548160ff021916908360ff1602179055505b600154600360008a73ffffffffffffffffffffffffffffffffffffffff1673ffffffffffffffffffffffffffffffffffffffff16815260200190815260200160002060020160019054906101000a900460ff1660ff161415610aa657600154600202600360008a73ffffffffffffffffffffffffffffffffffffffff1673ffffffffffffffffffffffffffffffffffffffff16815260200190815260200160002060020160009054906101000a900460ff1660ff161415610a1a57610a1588600360008b73ffffffffffffffffffffffffffffffffffffffff1673ffffffffffffffffffffffffffffffffffffffff1681526020019081526020016000206000018054600181600116156101000203166002900480601f016020809104026020016040519081016040528092919081815260200182805460018160011615610100020316600290048015610a0b5780601f106109e057610100808354040283529160200191610a0b565b820191906000526020600020905b8154815290600101906020018083116109ee57829003601f168201915b5050505050610cb2565b610aa5565b600360008973ffffffffffffffffffffffffffffffffffffffff1673ffffffffffffffffffffffffffffffffffffffff16815260200190815260200160002060008082016000610a6a91906110be565b600182016000610a7a9190611106565b6002820160006101000a81549060ff02191690556002820160016101000a81549060ff021916905550505b5b5050505050505050565b610ab8611127565b81600073ffffffffffffffffffffffffffffffffffffffff168173ffffffffffffffffffffffffffffffffffffffff1614151515610af557600080fd5b600360008473ffffffffffffffffffffffffffffffffffffffff1673ffffffffffffffffffffffffffffffffffffffff16815260200190815260200160002060806040519081016040529081600082018054600181600116156101000203166002900480601f016020809104026020016040519081016040528092919081815260200182805460018160011615610100020316600290048015610bd95780601f10610bae57610100808354040283529160200191610bd9565b820191906000526020600020905b815481529060010190602001808311610bbc57829003601f168201915b5050505050815260200160018201805480602002602001604051908101604052809291908181526020018280548015610c6757602002820191906000526020600020905b8160009054906101000a900473ffffffffffffffffffffffffffffffffffffffff1673ffffffffffffffffffffffffffffffffffffffff1681526020019060010190808311610c1d575b505050505081526020016002820160009054906101000a900460ff1660ff1660ff1681526020016002820160019054906101000a900460ff1660ff1660ff1681525050915050919050565b33600073ffffffffffffffffffffffffffffffffffffffff168173ffffffffffffffffffffffffffffffffffffffff1614151515610cef57600080fd5b60008060009150600090505b600080549050811015610d8857600081815481101515610d1757fe5b906000526020600020900160009054906101000a900473ffffffffffffffffffffffffffffffffffffffff1673ffffffffffffffffffffffffffffffffffffffff163373ffffffffffffffffffffffffffffffffffffffff161415610d7b57600191505b8080600101915050610cfb565b811515610d9457600080fd5b600460009054906101000a900460ff16151515610db057600080fd5b6001600460006101000a81548160ff021916908315150217905550600260009054906101000a900473ffffffffffffffffffffffffffffffffffffffff1673ffffffffffffffffffffffffffffffffffffffff166387a8d4dc86866040518363ffffffff167c0100000000000000000000000000000000000000000000000000000000028152600401808373ffffffffffffffffffffffffffffffffffffffff1673ffffffffffffffffffffffffffffffffffffffff16815260200180602001828103825283818151815260200191508051906020019080838360005b83811015610ea8578082015181840152602081019050610e8d565b50505050905090810190601f168015610ed55780820380516001836020036101000a031916815260200191505b509350505050600060405180830381600087803b1515610ef457600080fd5b6102c65a03f11515610f0557600080fd5b505050600360008673ffffffffffffffffffffffffffffffffffffffff1673ffffffffffffffffffffffffffffffffffffffff16815260200190815260200160002060008082016000610f5891906110be565b600182016000610f689190611106565b6002820160006101000a81549060ff02191690556002820160016101000a81549060ff021916905550506000600460006101000a81548160ff0219169083151502179055505050505050565b828054600181600116156101000203166002900490600052602060002090601f016020900481019282601f10610ff557805160ff1916838001178555611023565b82800160010185558215611023579182015b82811115611022578251825591602001919060010190611007565b5b5090506110309190611162565b5090565b8280548282559060005260206000209081019282156110ad579160200282015b828111156110ac5782518260006101000a81548173ffffffffffffffffffffffffffffffffffffffff021916908373ffffffffffffffffffffffffffffffffffffffff16021790555091602001919060010190611054565b5b5090506110ba9190611187565b5090565b50805460018160011615610100020316600290046000825580601f106110e45750611103565b601f0160209004906000526020600020908101906111029190611162565b5b50565b50805460008255906000526020600020908101906111249190611162565b50565b60806040519081016040528061113b6111ca565b81526020016111486111de565b8152602001600060ff168152602001600060ff1681525090565b61118491905b80821115611180576000816000905550600101611168565b5090565b90565b6111c791905b808211156111c357600081816101000a81549073ffffffffffffffffffffffffffffffffffffffff02191690555060010161118d565b5090565b90565b602060405190810160405280600081525090565b6020604051908101604052806000815250905600a165627a7a72305820961c2a1d10fa693f32a8c2d2ef1aca669315da7e319a4e37bd68d06e0bc03ec300296060604052341561000f57600080fd5b336000806101000a81548173ffffffffffffffffffffffffffffffffffffffff021916908373ffffffffffffffffffffffffffffffffffffffff1602179055506107758061005e6000396000f300606060405260043610610057576000357c0100000000000000000000000000000000000000000000000000000000900463ffffffff16806387a8d4dc1461005c5780638924f962146100d8578063b45b918414610135575b600080fd5b341561006757600080fd5b6100d6600480803573ffffffffffffffffffffffffffffffffffffffff1690602001909190803590602001908201803590602001908080601f016020809104026020016040519081016040528093929190818152602001838380828437820191505050505050919050506101e7565b005b34156100e357600080fd5b610133600480803590602001908201803590602001908080601f01602080910402602001604051908101604052809392919081815260200183838082843782019150505050505091905050610363565b005b341561014057600080fd5b61016c600480803573ffffffffffffffffffffffffffffffffffffffff1690602001909190505061056b565b6040518080602001828103825283818151815260200191508051906020019080838360005b838110156101ac578082015181840152602081019050610191565b50505050905090810190601f1680156101d95780820380516001836020036101000a031916815260200191505b509250505060405180910390f35b3373ffffffffffffffffffffffffffffffffffffffff166000809054906101000a900473ffffffffffffffffffffffffffffffffffffffff1673ffffffffffffffffffffffffffffffffffffffff1614151561024257600080fd5b81600073ffffffffffffffffffffffffffffffffffffffff168173ffffffffffffffffffffffffffffffffffffffff161415151561027f57600080fd5b81604051806000019050604051809103902060001916816040518082805190602001908083835b6020831015156102cb57805182526020820191506020810190506020830392506102a6565b6001836020036101000a0380198251168184511680821785525050505050509050019150506040518091039020600019161415151561030957600080fd5b82600160008673ffffffffffffffffffffffffffffffffffffffff1673ffffffffffffffffffffffffffffffffffffffff168152602001908152602001600020908051906020019061035c929190610690565b5050505050565b33600073ffffffffffffffffffffffffffffffffffffffff168173ffffffffffffffffffffffffffffffffffffffff16141515156103a057600080fd5b81604051806000019050604051809103902060001916816040518082805190602001908083835b6020831015156103ec57805182526020820191506020810190506020830392506103c7565b6001836020036101000a0380198251168184511680821785525050505050509050019150506040518091039020600019161415151561042a57600080fd5b6000809054906101000a900473ffffffffffffffffffffffffffffffffffffffff1673ffffffffffffffffffffffffffffffffffffffff16631f4f7d2933856040518363ffffffff167c0100000000000000000000000000000000000000000000000000000000028152600401808373ffffffffffffffffffffffffffffffffffffffff1673ffffffffffffffffffffffffffffffffffffffff16815260200180602001828103825283818151815260200191508051906020019080838360005b838110156105065780820151818401526020810190506104eb565b50505050905090810190601f1680156105335780820380516001836020036101000a031916815260200191505b509350505050600060405180830381600087803b151561055257600080fd5b6102c65a03f1151561056357600080fd5b505050505050565b610573610710565b81600073ffffffffffffffffffffffffffffffffffffffff168173ffffffffffffffffffffffffffffffffffffffff16141515156105b057600080fd5b600160008473ffffffffffffffffffffffffffffffffffffffff1673ffffffffffffffffffffffffffffffffffffffff1681526020019081526020016000208054600181600116156101000203166002900480601f0160208091040260200160405190810160405280929190818152602001828054600181600116156101000203166002900480156106835780601f1061065857610100808354040283529160200191610683565b820191906000526020600020905b81548152906001019060200180831161066657829003601f168201915b5050505050915050919050565b828054600181600116156101000203166002900490600052602060002090601f016020900481019282601f106106d157805160ff19168380011785556106ff565b828001600101855582156106ff579182015b828111156106fe5782518255916020019190600101906106e3565b5b50905061070c9190610724565b5090565b602060405190810160405280600081525090565b61074691905b8082111561074257600081600090555060010161072a565b5090565b905600a165627a7a72305820a26c10aa7ee2fc3756b359eefab776c857f60e2511abf1e2a0e97ba36fdcf8b50029",
  "source": "pragma solidity ^0.4.15;\n\n\nimport \"./ChairmanRegistry.sol\";\n\n\ncontract Oracle {\n\n\n    struct Proposal {\n    // may be extended with whatever data is needed to identify company\n    string companyName;\n    address[] membersThatHaventVoted;\n    // voting for creating chairman registry 0 - not voted 1 - no 2 - yes\n    uint8 votes;\n    uint8 numberOfVotes;\n    }\n\n    address[] members;\n\n    uint numberOfMembers;\n\n    ChairmanRegistry registry;\n\n    // chairmanAddress => proposal\n    mapping (address => Proposal) public proposals;\n\n    bool locked;\n\n    modifier validAddress(address adr){\n        require(adr != address(0));\n        _;\n    }\n\n    modifier isMember(){\n        bool isMemberOfOracle = false;\n\n        for (uint i = 0; i < members.length; i++) {\n            if (msg.sender == members[i]) {\n                isMemberOfOracle = true;\n            }\n        }\n\n        require(isMemberOfOracle);\n        _;\n    }\n\n    modifier haventVotedYet(address chairmanAddress){\n        bool haventVoted = false;\n        //checks that msg.sender is in array of members that havent voted for given proposal\n        for (uint i = 0; i < proposals[chairmanAddress].membersThatHaventVoted.length; i++) {\n            if (proposals[chairmanAddress].membersThatHaventVoted[i] == msg.sender) {\n                haventVoted = true;\n            }\n        }\n        require(haventVoted);\n        _;\n    }\n\n    modifier noReentrancy(){\n        require(!locked);\n        locked = true;\n        _;\n        locked = false;\n    }\n\n    modifier isChairmanRegistry(){\n        require(msg.sender == address(registry));\n        _;\n    }\n\n    function Oracle(address[] _members) {\n        members = _members;\n        registry = new ChairmanRegistry();\n    }\n\n    function createProposal(address chairman, string companyName)\n    isChairmanRegistry\n    {\n        proposals[chairman] = Proposal(companyName, members, 0, 0);\n    }\n\n    function vote(address chairman, bool voteFor)\n    validAddress(msg.sender)\n    isMember\n    haventVotedYet(chairman) {\n        if (voteFor) {\n            proposals[chairman].votes = proposals[chairman].votes + 2;\n            ++proposals[chairman].numberOfVotes;\n        }\n        else {\n            ++proposals[chairman].votes;\n            ++proposals[chairman].numberOfVotes;\n        }\n        // check if voting is finished\n        if (proposals[chairman].numberOfVotes == numberOfMembers) {\n            //check if proposal has passed\n            if (proposals[chairman].votes == (2 * numberOfMembers)) {\n                registerChairman(chairman, proposals[chairman].companyName);\n            }\n            else {\n                delete proposals[chairman];\n            }\n        }\n    }\n\n    function registerChairman(address chairman, string companyName) private\n    validAddress(msg.sender)\n    isMember\n    noReentrancy\n    {\n        registry.assignChairman(chairman, companyName);\n        delete proposals[chairman];\n    }\n\n    function getProposal(address chairman)\n    constant\n    validAddress(chairman)\n    returns (Proposal){\n        return proposals[chairman];\n    }\n}\n",
  "sourcePath": "/home/szymon/IdeaProjects/consortium-identity/contracts/Oracle.sol",
  "compiler": {
    "name": "solc",
    "version": "0.4.18+commit.9cf6e910.Emscripten.clang"
  },
  "schemaVersion": "1.0.1",
  "updatedAt": "2017-12-22T00:31:30.596Z"
}